{
  "_format": "hh-sol-artifact-1",
  "contractName": "Raffle",
  "sourceName": "src/backend/contracts/Raffle.sol",
  "abi": [
    {
      "inputs": [
        {
          "internalType": "address",
          "name": "_tokenAddress",
          "type": "address"
        },
        {
          "internalType": "uint256",
          "name": "_entryPrice",
          "type": "uint256"
        },
        {
          "internalType": "address",
          "name": "_teamWallet",
          "type": "address"
        },
        {
          "internalType": "string",
          "name": "_provenance",
          "type": "string"
        }
      ],
      "stateMutability": "nonpayable",
      "type": "constructor"
    },
    {
      "anonymous": false,
      "inputs": [
        {
          "indexed": true,
          "internalType": "address",
          "name": "previousOwner",
          "type": "address"
        },
        {
          "indexed": true,
          "internalType": "address",
          "name": "newOwner",
          "type": "address"
        }
      ],
      "name": "OwnershipTransferred",
      "type": "event"
    },
    {
      "anonymous": false,
      "inputs": [],
      "name": "RaffleFilled",
      "type": "event"
    },
    {
      "anonymous": false,
      "inputs": [
        {
          "indexed": false,
          "internalType": "address",
          "name": "user",
          "type": "address"
        },
        {
          "indexed": false,
          "internalType": "uint256",
          "name": "slot",
          "type": "uint256"
        }
      ],
      "name": "SlotEntered",
      "type": "event"
    },
    {
      "anonymous": false,
      "inputs": [
        {
          "indexed": false,
          "internalType": "address",
          "name": "user",
          "type": "address"
        },
        {
          "indexed": false,
          "internalType": "uint256",
          "name": "slot",
          "type": "uint256"
        }
      ],
      "name": "SlotLeft",
      "type": "event"
    },
    {
      "inputs": [
        {
          "internalType": "uint256",
          "name": "_randomNumber",
          "type": "uint256"
        },
        {
          "internalType": "string",
          "name": "_provenance",
          "type": "string"
        }
      ],
      "name": "endRaffle",
      "outputs": [],
      "stateMutability": "nonpayable",
      "type": "function"
    },
    {
      "inputs": [],
      "name": "entryPrice",
      "outputs": [
        {
          "internalType": "uint256",
          "name": "",
          "type": "uint256"
        }
      ],
      "stateMutability": "view",
      "type": "function"
    },
    {
      "inputs": [],
      "name": "lastProvenance",
      "outputs": [
        {
          "internalType": "string",
          "name": "",
          "type": "string"
        }
      ],
      "stateMutability": "view",
      "type": "function"
    },
    {
      "inputs": [],
      "name": "lastRandomNumber",
      "outputs": [
        {
          "internalType": "uint256",
          "name": "",
          "type": "uint256"
        }
      ],
      "stateMutability": "view",
      "type": "function"
    },
    {
      "inputs": [],
      "name": "lastWinner",
      "outputs": [
        {
          "internalType": "address",
          "name": "",
          "type": "address"
        }
      ],
      "stateMutability": "view",
      "type": "function"
    },
    {
      "inputs": [],
      "name": "nextProvenance",
      "outputs": [
        {
          "internalType": "string",
          "name": "",
          "type": "string"
        }
      ],
      "stateMutability": "view",
      "type": "function"
    },
    {
      "inputs": [],
      "name": "owner",
      "outputs": [
        {
          "internalType": "address",
          "name": "",
          "type": "address"
        }
      ],
      "stateMutability": "view",
      "type": "function"
    },
    {
      "inputs": [
        {
          "internalType": "uint256",
          "name": "",
          "type": "uint256"
        }
      ],
      "name": "participants",
      "outputs": [
        {
          "internalType": "address",
          "name": "",
          "type": "address"
        }
      ],
      "stateMutability": "view",
      "type": "function"
    },
    {
      "inputs": [],
      "name": "participantsCount",
      "outputs": [
        {
          "internalType": "uint256",
          "name": "",
          "type": "uint256"
        }
      ],
      "stateMutability": "view",
      "type": "function"
    },
    {
      "inputs": [
        {
          "internalType": "uint256",
          "name": "_slot",
          "type": "uint256"
        }
      ],
      "name": "play",
      "outputs": [],
      "stateMutability": "nonpayable",
      "type": "function"
    },
    {
      "inputs": [
        {
          "internalType": "uint256",
          "name": "_slot",
          "type": "uint256"
        }
      ],
      "name": "pullOut",
      "outputs": [],
      "stateMutability": "nonpayable",
      "type": "function"
    },
    {
      "inputs": [],
      "name": "renounceOwnership",
      "outputs": [],
      "stateMutability": "nonpayable",
      "type": "function"
    },
    {
      "inputs": [
        {
          "internalType": "uint256",
          "name": "_entryPrice",
          "type": "uint256"
        }
      ],
      "name": "setEntryPrice",
      "outputs": [],
      "stateMutability": "nonpayable",
      "type": "function"
    },
    {
      "inputs": [
        {
          "internalType": "uint256",
          "name": "_percent",
          "type": "uint256"
        }
      ],
      "name": "setPercentToBurn",
      "outputs": [],
      "stateMutability": "nonpayable",
      "type": "function"
    },
    {
      "inputs": [
        {
          "internalType": "uint256",
          "name": "_percent",
          "type": "uint256"
        }
      ],
      "name": "setPercentToTeam",
      "outputs": [],
      "stateMutability": "nonpayable",
      "type": "function"
    },
    {
      "inputs": [],
      "name": "totalBurned",
      "outputs": [
        {
          "internalType": "uint256",
          "name": "",
          "type": "uint256"
        }
      ],
      "stateMutability": "view",
      "type": "function"
    },
    {
      "inputs": [],
      "name": "totalPayout",
      "outputs": [
        {
          "internalType": "uint256",
          "name": "",
          "type": "uint256"
        }
      ],
      "stateMutability": "view",
      "type": "function"
    },
    {
      "inputs": [
        {
          "internalType": "address",
          "name": "newOwner",
          "type": "address"
        }
      ],
      "name": "transferOwnership",
      "outputs": [],
      "stateMutability": "nonpayable",
      "type": "function"
    },
    {
      "inputs": [],
      "name": "withdraw",
      "outputs": [],
      "stateMutability": "nonpayable",
      "type": "function"
    }
  ],
  "bytecode": "0x6080604052601e60135560466014553480156200001b57600080fd5b506040516200253738038062002537833981810160405281019062000041919062000330565b62000061620000556200011460201b60201c565b6200011c60201b60201c565b6001808190555082600e8190555083600260006101000a81548173ffffffffffffffffffffffffffffffffffffffff021916908373ffffffffffffffffffffffffffffffffffffffff16021790555081601560006101000a81548173ffffffffffffffffffffffffffffffffffffffff021916908373ffffffffffffffffffffffffffffffffffffffff160217905550806018908051906020019062000109929190620001e0565b505050505062000597565b600033905090565b60008060009054906101000a900473ffffffffffffffffffffffffffffffffffffffff169050816000806101000a81548173ffffffffffffffffffffffffffffffffffffffff021916908373ffffffffffffffffffffffffffffffffffffffff1602179055508173ffffffffffffffffffffffffffffffffffffffff168173ffffffffffffffffffffffffffffffffffffffff167f8be0079c531659141344cd1fd0a4f28419497f9722a3daafe3b4186f6b6457e060405160405180910390a35050565b828054620001ee9062000488565b90600052602060002090601f0160209004810192826200021257600085556200025e565b82601f106200022d57805160ff19168380011785556200025e565b828001600101855582156200025e579182015b828111156200025d57825182559160200191906001019062000240565b5b5090506200026d919062000271565b5090565b5b808211156200028c57600081600090555060010162000272565b5090565b6000620002a7620002a184620003de565b620003b5565b905082815260208101848484011115620002c057600080fd5b620002cd84828562000452565b509392505050565b600081519050620002e68162000563565b92915050565b600082601f830112620002fe57600080fd5b81516200031084826020860162000290565b91505092915050565b6000815190506200032a816200057d565b92915050565b600080600080608085870312156200034757600080fd5b60006200035787828801620002d5565b94505060206200036a8782880162000319565b93505060406200037d87828801620002d5565b925050606085015167ffffffffffffffff8111156200039b57600080fd5b620003a987828801620002ec565b91505092959194509250565b6000620003c1620003d4565b9050620003cf8282620004be565b919050565b6000604051905090565b600067ffffffffffffffff821115620003fc57620003fb62000523565b5b620004078262000552565b9050602081019050919050565b6000620004218262000428565b9050919050565b600073ffffffffffffffffffffffffffffffffffffffff82169050919050565b6000819050919050565b60005b838110156200047257808201518184015260208101905062000455565b8381111562000482576000848401525b50505050565b60006002820490506001821680620004a157607f821691505b60208210811415620004b857620004b7620004f4565b5b50919050565b620004c98262000552565b810181811067ffffffffffffffff82111715620004eb57620004ea62000523565b5b80604052505050565b7f4e487b7100000000000000000000000000000000000000000000000000000000600052602260045260246000fd5b7f4e487b7100000000000000000000000000000000000000000000000000000000600052604160045260246000fd5b6000601f19601f8301169050919050565b6200056e8162000414565b81146200057a57600080fd5b50565b620005888162000448565b81146200059457600080fd5b50565b611f9080620005a76000396000f3fe608060405234801561001057600080fd5b50600436106101215760003560e01c8063998f3fd7116100ad578063dd60c89811610071578063dd60c898146102a8578063f10052a7146102c6578063f2fde38b146102e4578063f745adfc14610300578063fe1881841461031e57610121565b8063998f3fd71461021a578063a3d176ff14610236578063a6e77af114610252578063d89135cd1461026e578063dcaddb061461028c57610121565b80634eef98b6116100f45780634eef98b61461019c5780636898f82b146101ba578063715018a6146101d65780638da5cb5b146101e05780638f72f576146101fe57610121565b806321e1ba4e1461012657806335c1d349146101445780633ccfd60b14610174578063454f7b8f1461017e575b600080fd5b61012e61033c565b60405161013b91906119f7565b60405180910390f35b61015e600480360381019061015991906116b1565b610342565b60405161016b919061187a565b60405180910390f35b61017c610378565b005b61018661043d565b60405161019391906119f7565b60405180910390f35b6101a4610443565b6040516101b191906118f5565b60405180910390f35b6101d460048036038101906101cf91906116b1565b6104d1565b005b6101de6107ee565b005b6101e8610876565b6040516101f5919061187a565b60405180910390f35b610218600480360381019061021391906116b1565b61089f565b005b610234600480360381019061022f91906116b1565b610b83565b005b610250600480360381019061024b91906116da565b610c09565b005b61026c600480360381019061026791906116b1565b6110f2565b005b610276611178565b60405161028391906119f7565b60405180910390f35b6102a660048036038101906102a191906116b1565b61117e565b005b6102b0611204565b6040516102bd91906119f7565b60405180910390f35b6102ce61120a565b6040516102db91906118f5565b60405180910390f35b6102fe60048036038101906102f9919061165f565b611298565b005b610308611390565b60405161031591906119f7565b60405180910390f35b610326611396565b604051610333919061187a565b60405180910390f35b60165481565b600381600b811061035257600080fd5b016000915054906101000a900473ffffffffffffffffffffffffffffffffffffffff1681565b6103806113bc565b73ffffffffffffffffffffffffffffffffffffffff1661039e610876565b73ffffffffffffffffffffffffffffffffffffffff16146103f4576040517f08c379a00000000000000000000000000000000000000000000000000000000081526004016103eb90611957565b60405180910390fd5b3373ffffffffffffffffffffffffffffffffffffffff166108fc479081150290604051600060405180830381858888f1935050505015801561043a573d6000803e3d6000fd5b50565b60105481565b6017805461045090611c23565b80601f016020809104026020016040519081016040528092919081815260200182805461047c90611c23565b80156104c95780601f1061049e576101008083540402835291602001916104c9565b820191906000526020600020905b8154815290600101906020018083116104ac57829003601f168201915b505050505081565b60026001541415610517576040517f08c379a000000000000000000000000000000000000000000000000000000000815260040161050e906119d7565b60405180910390fd5b6002600181905550600b8110610562576040517f08c379a0000000000000000000000000000000000000000000000000000000008152600401610559906119b7565b60405180910390fd5b600073ffffffffffffffffffffffffffffffffffffffff16600382600b81106105b4577f4e487b7100000000000000000000000000000000000000000000000000000000600052603260045260246000fd5b0160009054906101000a900473ffffffffffffffffffffffffffffffffffffffff1673ffffffffffffffffffffffffffffffffffffffff161461062c576040517f08c379a000000000000000000000000000000000000000000000000000000000815260040161062390611997565b60405180910390fd5b600260009054906101000a900473ffffffffffffffffffffffffffffffffffffffff1673ffffffffffffffffffffffffffffffffffffffff166323b872dd3330600e546040518463ffffffff1660e01b815260040161068d93929190611895565b602060405180830381600087803b1580156106a757600080fd5b505af11580156106bb573d6000803e3d6000fd5b505050506040513d601f19601f820116820180604052508101906106df9190611688565b5033600382600b811061071b577f4e487b7100000000000000000000000000000000000000000000000000000000600052603260045260246000fd5b0160006101000a81548173ffffffffffffffffffffffffffffffffffffffff021916908373ffffffffffffffffffffffffffffffffffffffff16021790555060016012600082825461076d9190611a84565b925050819055507f61f34d7a1d53dfa3049f9b57c26e8fa833632bc7b6f0709247cd4c51268517e733826040516107a59291906118cc565b60405180910390a1600b601254106107e4577f4f072dab40e195968d7b7fe2e8d8c6f1c6bcb4221126429b221f5c324b8fe1a460405160405180910390a15b6001808190555050565b6107f66113bc565b73ffffffffffffffffffffffffffffffffffffffff16610814610876565b73ffffffffffffffffffffffffffffffffffffffff161461086a576040517f08c379a000000000000000000000000000000000000000000000000000000000815260040161086190611957565b60405180910390fd5b61087460006113c4565b565b60008060009054906101000a900473ffffffffffffffffffffffffffffffffffffffff16905090565b600260015414156108e5576040517f08c379a00000000000000000000000000000000000000000000000000000000081526004016108dc906119d7565b60405180910390fd5b6002600181905550600b8110610930576040517f08c379a000000000000000000000000000000000000000000000000000000000815260040161092790611977565b60405180910390fd5b3373ffffffffffffffffffffffffffffffffffffffff16600382600b8110610981577f4e487b7100000000000000000000000000000000000000000000000000000000600052603260045260246000fd5b0160009054906101000a900473ffffffffffffffffffffffffffffffffffffffff1673ffffffffffffffffffffffffffffffffffffffff16146109f9576040517f08c379a00000000000000000000000000000000000000000000000000000000081526004016109f090611937565b60405180910390fd5b6000600382600b8110610a35577f4e487b7100000000000000000000000000000000000000000000000000000000600052603260045260246000fd5b0160006101000a81548173ffffffffffffffffffffffffffffffffffffffff021916908373ffffffffffffffffffffffffffffffffffffffff160217905550600160126000828254610a879190611b65565b92505081905550600260009054906101000a900473ffffffffffffffffffffffffffffffffffffffff1673ffffffffffffffffffffffffffffffffffffffff1663a9059cbb33600e546040518363ffffffff1660e01b8152600401610aed9291906118cc565b602060405180830381600087803b158015610b0757600080fd5b505af1158015610b1b573d6000803e3d6000fd5b505050506040513d601f19601f82011682018060405250810190610b3f9190611688565b507f23a2a122623b289fc3ab6661b083fb22bee910e7cb46c5823b2a3e1d724ef6ce3382604051610b719291906118cc565b60405180910390a16001808190555050565b610b8b6113bc565b73ffffffffffffffffffffffffffffffffffffffff16610ba9610876565b73ffffffffffffffffffffffffffffffffffffffff1614610bff576040517f08c379a0000000000000000000000000000000000000000000000000000000008152600401610bf690611957565b60405180910390fd5b8060138190555050565b610c116113bc565b73ffffffffffffffffffffffffffffffffffffffff16610c2f610876565b73ffffffffffffffffffffffffffffffffffffffff1614610c85576040517f08c379a0000000000000000000000000000000000000000000000000000000008152600401610c7c90611957565b60405180910390fd5b60186017908054610c9590611c23565b610ca0929190611488565b508060189080519060200190610cb7929190611515565b50816016819055506000600b83610cce9190611c86565b9050600381600b8110610d0a577f4e487b7100000000000000000000000000000000000000000000000000000000600052603260045260246000fd5b0160009054906101000a900473ffffffffffffffffffffffffffffffffffffffff16601160006101000a81548173ffffffffffffffffffffffffffffffffffffffff021916908373ffffffffffffffffffffffffffffffffffffffff160217905550600260009054906101000a900473ffffffffffffffffffffffffffffffffffffffff1673ffffffffffffffffffffffffffffffffffffffff1663a9059cbb601160009054906101000a900473ffffffffffffffffffffffffffffffffffffffff16600a600e54610ddc9190611b0b565b6040518363ffffffff1660e01b8152600401610df99291906118cc565b602060405180830381600087803b158015610e1357600080fd5b505af1158015610e27573d6000803e3d6000fd5b505050506040513d601f19601f82011682018060405250810190610e4b9190611688565b5060006064601354600e54610e609190611b0b565b610e6a9190611ada565b905060006064601454600e54610e809190611b0b565b610e8a9190611ada565b9050600260009054906101000a900473ffffffffffffffffffffffffffffffffffffffff1673ffffffffffffffffffffffffffffffffffffffff1663a9059cbb61dead846040518363ffffffff1660e01b8152600401610eeb9291906118cc565b602060405180830381600087803b158015610f0557600080fd5b505af1158015610f19573d6000803e3d6000fd5b505050506040513d601f19601f82011682018060405250810190610f3d9190611688565b50600260009054906101000a900473ffffffffffffffffffffffffffffffffffffffff1673ffffffffffffffffffffffffffffffffffffffff1663a9059cbb601560009054906101000a900473ffffffffffffffffffffffffffffffffffffffff16836040518363ffffffff1660e01b8152600401610fbd9291906118cc565b602060405180830381600087803b158015610fd757600080fd5b505af1158015610feb573d6000803e3d6000fd5b505050506040513d601f19601f8201168201806040525081019061100f9190611688565b5081600f60008282546110229190611a84565b92505081905550600a600e546110389190611b0b565b601060008282546110499190611a84565b9250508190555060005b600b8110156110e2576000600382600b8110611098577f4e487b7100000000000000000000000000000000000000000000000000000000600052603260045260246000fd5b0160006101000a81548173ffffffffffffffffffffffffffffffffffffffff021916908373ffffffffffffffffffffffffffffffffffffffff160217905550806001019050611053565b5060006012819055505050505050565b6110fa6113bc565b73ffffffffffffffffffffffffffffffffffffffff16611118610876565b73ffffffffffffffffffffffffffffffffffffffff161461116e576040517f08c379a000000000000000000000000000000000000000000000000000000000815260040161116590611957565b60405180910390fd5b80600e8190555050565b600f5481565b6111866113bc565b73ffffffffffffffffffffffffffffffffffffffff166111a4610876565b73ffffffffffffffffffffffffffffffffffffffff16146111fa576040517f08c379a00000000000000000000000000000000000000000000000000000000081526004016111f190611957565b60405180910390fd5b8060148190555050565b60125481565b6018805461121790611c23565b80601f016020809104026020016040519081016040528092919081815260200182805461124390611c23565b80156112905780601f1061126557610100808354040283529160200191611290565b820191906000526020600020905b81548152906001019060200180831161127357829003601f168201915b505050505081565b6112a06113bc565b73ffffffffffffffffffffffffffffffffffffffff166112be610876565b73ffffffffffffffffffffffffffffffffffffffff1614611314576040517f08c379a000000000000000000000000000000000000000000000000000000000815260040161130b90611957565b60405180910390fd5b600073ffffffffffffffffffffffffffffffffffffffff168173ffffffffffffffffffffffffffffffffffffffff161415611384576040517f08c379a000000000000000000000000000000000000000000000000000000000815260040161137b90611917565b60405180910390fd5b61138d816113c4565b50565b600e5481565b601160009054906101000a900473ffffffffffffffffffffffffffffffffffffffff1681565b600033905090565b60008060009054906101000a900473ffffffffffffffffffffffffffffffffffffffff169050816000806101000a81548173ffffffffffffffffffffffffffffffffffffffff021916908373ffffffffffffffffffffffffffffffffffffffff1602179055508173ffffffffffffffffffffffffffffffffffffffff168173ffffffffffffffffffffffffffffffffffffffff167f8be0079c531659141344cd1fd0a4f28419497f9722a3daafe3b4186f6b6457e060405160405180910390a35050565b82805461149490611c23565b90600052602060002090601f0160209004810192826114b65760008555611504565b82601f106114c75780548555611504565b8280016001018555821561150457600052602060002091601f016020900482015b828111156115035782548255916001019190600101906114e8565b5b509050611511919061159b565b5090565b82805461152190611c23565b90600052602060002090601f016020900481019282611543576000855561158a565b82601f1061155c57805160ff191683800117855561158a565b8280016001018555821561158a579182015b8281111561158957825182559160200191906001019061156e565b5b509050611597919061159b565b5090565b5b808211156115b457600081600090555060010161159c565b5090565b60006115cb6115c684611a37565b611a12565b9050828152602081018484840111156115e357600080fd5b6115ee848285611be1565b509392505050565b60008135905061160581611f15565b92915050565b60008151905061161a81611f2c565b92915050565b600082601f83011261163157600080fd5b81356116418482602086016115b8565b91505092915050565b60008135905061165981611f43565b92915050565b60006020828403121561167157600080fd5b600061167f848285016115f6565b91505092915050565b60006020828403121561169a57600080fd5b60006116a88482850161160b565b91505092915050565b6000602082840312156116c357600080fd5b60006116d18482850161164a565b91505092915050565b600080604083850312156116ed57600080fd5b60006116fb8582860161164a565b925050602083013567ffffffffffffffff81111561171857600080fd5b61172485828601611620565b9150509250929050565b61173781611b99565b82525050565b600061174882611a68565b6117528185611a73565b9350611762818560208601611bf0565b61176b81611d73565b840191505092915050565b6000611783602683611a73565b915061178e82611d84565b604082019050919050565b60006117a6601e83611a73565b91506117b182611dd3565b602082019050919050565b60006117c9602083611a73565b91506117d482611dfc565b602082019050919050565b60006117ec602283611a73565b91506117f782611e25565b604082019050919050565b600061180f601583611a73565b915061181a82611e74565b602082019050919050565b6000611832602283611a73565b915061183d82611e9d565b604082019050919050565b6000611855601f83611a73565b915061186082611eec565b602082019050919050565b61187481611bd7565b82525050565b600060208201905061188f600083018461172e565b92915050565b60006060820190506118aa600083018661172e565b6118b7602083018561172e565b6118c4604083018461186b565b949350505050565b60006040820190506118e1600083018561172e565b6118ee602083018461186b565b9392505050565b6000602082019050818103600083015261190f818461173d565b905092915050565b6000602082019050818103600083015261193081611776565b9050919050565b6000602082019050818103600083015261195081611799565b9050919050565b60006020820190508181036000830152611970816117bc565b9050919050565b60006020820190508181036000830152611990816117df565b9050919050565b600060208201905081810360008301526119b081611802565b9050919050565b600060208201905081810360008301526119d081611825565b9050919050565b600060208201905081810360008301526119f081611848565b9050919050565b6000602082019050611a0c600083018461186b565b92915050565b6000611a1c611a2d565b9050611a288282611c55565b919050565b6000604051905090565b600067ffffffffffffffff821115611a5257611a51611d44565b5b611a5b82611d73565b9050602081019050919050565b600081519050919050565b600082825260208201905092915050565b6000611a8f82611bd7565b9150611a9a83611bd7565b9250827fffffffffffffffffffffffffffffffffffffffffffffffffffffffffffffffff03821115611acf57611ace611cb7565b5b828201905092915050565b6000611ae582611bd7565b9150611af083611bd7565b925082611b0057611aff611ce6565b5b828204905092915050565b6000611b1682611bd7565b9150611b2183611bd7565b9250817fffffffffffffffffffffffffffffffffffffffffffffffffffffffffffffffff0483118215151615611b5a57611b59611cb7565b5b828202905092915050565b6000611b7082611bd7565b9150611b7b83611bd7565b925082821015611b8e57611b8d611cb7565b5b828203905092915050565b6000611ba482611bb7565b9050919050565b60008115159050919050565b600073ffffffffffffffffffffffffffffffffffffffff82169050919050565b6000819050919050565b82818337600083830152505050565b60005b83811015611c0e578082015181840152602081019050611bf3565b83811115611c1d576000848401525b50505050565b60006002820490506001821680611c3b57607f821691505b60208210811415611c4f57611c4e611d15565b5b50919050565b611c5e82611d73565b810181811067ffffffffffffffff82111715611c7d57611c7c611d44565b5b80604052505050565b6000611c9182611bd7565b9150611c9c83611bd7565b925082611cac57611cab611ce6565b5b828206905092915050565b7f4e487b7100000000000000000000000000000000000000000000000000000000600052601160045260246000fd5b7f4e487b7100000000000000000000000000000000000000000000000000000000600052601260045260246000fd5b7f4e487b7100000000000000000000000000000000000000000000000000000000600052602260045260246000fd5b7f4e487b7100000000000000000000000000000000000000000000000000000000600052604160045260246000fd5b6000601f19601f8301169050919050565b7f4f776e61626c653a206e6577206f776e657220697320746865207a65726f206160008201527f6464726573730000000000000000000000000000000000000000000000000000602082015250565b7f5468697320736c6f7420776173206e6f742074616b656e20627920796f750000600082015250565b7f4f776e61626c653a2063616c6c6572206973206e6f7420746865206f776e6572600082015250565b7f43616e206f6e6c79206c65617665206120736c6f742066726f6d203020746f2060008201527f3131000000000000000000000000000000000000000000000000000000000000602082015250565b7f5468697320736c6f74206973206e6f7420667265650000000000000000000000600082015250565b7f43616e206f6e6c7920656e746572206120736c6f742066726f6d203020746f2060008201527f3130000000000000000000000000000000000000000000000000000000000000602082015250565b7f5265656e7472616e637947756172643a207265656e7472616e742063616c6c00600082015250565b611f1e81611b99565b8114611f2957600080fd5b50565b611f3581611bab565b8114611f4057600080fd5b50565b611f4c81611bd7565b8114611f5757600080fd5b5056fea2646970667358221220c07829ba92e92dff4cd20cf48f79718ce5205f03df6d3ffa77a247fc4861ac9264736f6c63430008040033",
  "linkReferences": {},
  "deployedLinkReferences": {}
}