{
  "_format": "hh-sol-artifact-1",
  "contractName": "Raffle",
  "sourceName": "src/backend/contracts/Raffle.sol",
  "abi": [
    {
      "inputs": [
        {
          "internalType": "address",
          "name": "_tokenAddress",
          "type": "address"
        },
        {
          "internalType": "uint256",
          "name": "_entryPrice",
          "type": "uint256"
        },
        {
          "internalType": "address",
          "name": "_teamWallet",
          "type": "address"
        },
        {
          "internalType": "string",
          "name": "_provenance",
          "type": "string"
        }
      ],
      "stateMutability": "nonpayable",
      "type": "constructor"
    },
    {
      "anonymous": false,
      "inputs": [
        {
          "indexed": true,
          "internalType": "address",
          "name": "previousOwner",
          "type": "address"
        },
        {
          "indexed": true,
          "internalType": "address",
          "name": "newOwner",
          "type": "address"
        }
      ],
      "name": "OwnershipTransferred",
      "type": "event"
    },
    {
      "anonymous": false,
      "inputs": [],
      "name": "RaffleFilled",
      "type": "event"
    },
    {
      "anonymous": false,
      "inputs": [
        {
          "indexed": false,
          "internalType": "address",
          "name": "user",
          "type": "address"
        },
        {
          "indexed": false,
          "internalType": "uint256",
          "name": "slot",
          "type": "uint256"
        }
      ],
      "name": "SlotEntered",
      "type": "event"
    },
    {
      "anonymous": false,
      "inputs": [
        {
          "indexed": false,
          "internalType": "address",
          "name": "user",
          "type": "address"
        },
        {
          "indexed": false,
          "internalType": "uint256",
          "name": "slot",
          "type": "uint256"
        }
      ],
      "name": "SlotLeft",
      "type": "event"
    },
    {
      "inputs": [
        {
          "internalType": "uint256",
          "name": "_randomNumber",
          "type": "uint256"
        },
        {
          "internalType": "string",
          "name": "_provenance",
          "type": "string"
        }
      ],
      "name": "endRaffle",
      "outputs": [],
      "stateMutability": "nonpayable",
      "type": "function"
    },
    {
      "inputs": [],
      "name": "ended",
      "outputs": [
        {
          "internalType": "bool",
          "name": "",
          "type": "bool"
        }
      ],
      "stateMutability": "view",
      "type": "function"
    },
    {
      "inputs": [],
      "name": "entryPrice",
      "outputs": [
        {
          "internalType": "uint256",
          "name": "",
          "type": "uint256"
        }
      ],
      "stateMutability": "view",
      "type": "function"
    },
    {
      "inputs": [],
      "name": "lastProvenance",
      "outputs": [
        {
          "internalType": "string",
          "name": "",
          "type": "string"
        }
      ],
      "stateMutability": "view",
      "type": "function"
    },
    {
      "inputs": [],
      "name": "lastRandomNumber",
      "outputs": [
        {
          "internalType": "uint256",
          "name": "",
          "type": "uint256"
        }
      ],
      "stateMutability": "view",
      "type": "function"
    },
    {
      "inputs": [],
      "name": "lastWinner",
      "outputs": [
        {
          "internalType": "address",
          "name": "",
          "type": "address"
        }
      ],
      "stateMutability": "view",
      "type": "function"
    },
    {
      "inputs": [],
      "name": "nextProvenance",
      "outputs": [
        {
          "internalType": "string",
          "name": "",
          "type": "string"
        }
      ],
      "stateMutability": "view",
      "type": "function"
    },
    {
      "inputs": [],
      "name": "owner",
      "outputs": [
        {
          "internalType": "address",
          "name": "",
          "type": "address"
        }
      ],
      "stateMutability": "view",
      "type": "function"
    },
    {
      "inputs": [
        {
          "internalType": "uint256",
          "name": "",
          "type": "uint256"
        }
      ],
      "name": "participants",
      "outputs": [
        {
          "internalType": "address",
          "name": "",
          "type": "address"
        }
      ],
      "stateMutability": "view",
      "type": "function"
    },
    {
      "inputs": [],
      "name": "participantsCount",
      "outputs": [
        {
          "internalType": "uint256",
          "name": "",
          "type": "uint256"
        }
      ],
      "stateMutability": "view",
      "type": "function"
    },
    {
      "inputs": [
        {
          "internalType": "uint256",
          "name": "_slot",
          "type": "uint256"
        }
      ],
      "name": "play",
      "outputs": [],
      "stateMutability": "nonpayable",
      "type": "function"
    },
    {
      "inputs": [
        {
          "internalType": "uint256",
          "name": "_slot",
          "type": "uint256"
        }
      ],
      "name": "pullOut",
      "outputs": [],
      "stateMutability": "nonpayable",
      "type": "function"
    },
    {
      "inputs": [],
      "name": "renounceOwnership",
      "outputs": [],
      "stateMutability": "nonpayable",
      "type": "function"
    },
    {
      "inputs": [
        {
          "internalType": "uint256",
          "name": "_entryPrice",
          "type": "uint256"
        }
      ],
      "name": "setEntryPrice",
      "outputs": [],
      "stateMutability": "nonpayable",
      "type": "function"
    },
    {
      "inputs": [
        {
          "internalType": "uint256",
          "name": "_percent",
          "type": "uint256"
        }
      ],
      "name": "setPercentToBurn",
      "outputs": [],
      "stateMutability": "nonpayable",
      "type": "function"
    },
    {
      "inputs": [
        {
          "internalType": "uint256",
          "name": "_percent",
          "type": "uint256"
        }
      ],
      "name": "setPercentToTeam",
      "outputs": [],
      "stateMutability": "nonpayable",
      "type": "function"
    },
    {
      "inputs": [],
      "name": "totalBurned",
      "outputs": [
        {
          "internalType": "uint256",
          "name": "",
          "type": "uint256"
        }
      ],
      "stateMutability": "view",
      "type": "function"
    },
    {
      "inputs": [],
      "name": "totalPayout",
      "outputs": [
        {
          "internalType": "uint256",
          "name": "",
          "type": "uint256"
        }
      ],
      "stateMutability": "view",
      "type": "function"
    },
    {
      "inputs": [
        {
          "internalType": "address",
          "name": "newOwner",
          "type": "address"
        }
      ],
      "name": "transferOwnership",
      "outputs": [],
      "stateMutability": "nonpayable",
      "type": "function"
    },
    {
      "inputs": [],
      "name": "withdraw",
      "outputs": [],
      "stateMutability": "nonpayable",
      "type": "function"
    }
  ],
  "bytecode": "0x6080604052601e60145560466015553480156200001b57600080fd5b50604051620025b8380380620025b8833981810160405281019062000041919062000330565b62000061620000556200011460201b60201c565b6200011c60201b60201c565b6001808190555082600e8190555083600260006101000a81548173ffffffffffffffffffffffffffffffffffffffff021916908373ffffffffffffffffffffffffffffffffffffffff16021790555081601660006101000a81548173ffffffffffffffffffffffffffffffffffffffff021916908373ffffffffffffffffffffffffffffffffffffffff160217905550806019908051906020019062000109929190620001e0565b505050505062000597565b600033905090565b60008060009054906101000a900473ffffffffffffffffffffffffffffffffffffffff169050816000806101000a81548173ffffffffffffffffffffffffffffffffffffffff021916908373ffffffffffffffffffffffffffffffffffffffff1602179055508173ffffffffffffffffffffffffffffffffffffffff168173ffffffffffffffffffffffffffffffffffffffff167f8be0079c531659141344cd1fd0a4f28419497f9722a3daafe3b4186f6b6457e060405160405180910390a35050565b828054620001ee9062000488565b90600052602060002090601f0160209004810192826200021257600085556200025e565b82601f106200022d57805160ff19168380011785556200025e565b828001600101855582156200025e579182015b828111156200025d57825182559160200191906001019062000240565b5b5090506200026d919062000271565b5090565b5b808211156200028c57600081600090555060010162000272565b5090565b6000620002a7620002a184620003de565b620003b5565b905082815260208101848484011115620002c057600080fd5b620002cd84828562000452565b509392505050565b600081519050620002e68162000563565b92915050565b600082601f830112620002fe57600080fd5b81516200031084826020860162000290565b91505092915050565b6000815190506200032a816200057d565b92915050565b600080600080608085870312156200034757600080fd5b60006200035787828801620002d5565b94505060206200036a8782880162000319565b93505060406200037d87828801620002d5565b925050606085015167ffffffffffffffff8111156200039b57600080fd5b620003a987828801620002ec565b91505092959194509250565b6000620003c1620003d4565b9050620003cf8282620004be565b919050565b6000604051905090565b600067ffffffffffffffff821115620003fc57620003fb62000523565b5b620004078262000552565b9050602081019050919050565b6000620004218262000428565b9050919050565b600073ffffffffffffffffffffffffffffffffffffffff82169050919050565b6000819050919050565b60005b838110156200047257808201518184015260208101905062000455565b8381111562000482576000848401525b50505050565b60006002820490506001821680620004a157607f821691505b60208210811415620004b857620004b7620004f4565b5b50919050565b620004c98262000552565b810181811067ffffffffffffffff82111715620004eb57620004ea62000523565b5b80604052505050565b7f4e487b7100000000000000000000000000000000000000000000000000000000600052602260045260246000fd5b7f4e487b7100000000000000000000000000000000000000000000000000000000600052604160045260246000fd5b6000601f19601f8301169050919050565b6200056e8162000414565b81146200057a57600080fd5b50565b620005888162000448565b81146200059457600080fd5b50565b61201180620005a76000396000f3fe608060405234801561001057600080fd5b506004361061012c5760003560e01c8063998f3fd7116100ad578063dd60c89811610071578063dd60c898146102d1578063f10052a7146102ef578063f2fde38b1461030d578063f745adfc14610329578063fe188184146103475761012c565b8063998f3fd714610243578063a3d176ff1461025f578063a6e77af11461027b578063d89135cd14610297578063dcaddb06146102b55761012c565b80634eef98b6116100f45780634eef98b6146101c55780636898f82b146101e3578063715018a6146101ff5780638da5cb5b146102095780638f72f576146102275761012c565b806312fa6feb1461013157806321e1ba4e1461014f57806335c1d3491461016d5780633ccfd60b1461019d578063454f7b8f146101a7575b600080fd5b610139610365565b604051610146919061195b565b60405180910390f35b610157610378565b6040516101649190611a78565b60405180910390f35b61018760048036038101906101829190611708565b61037e565b60405161019491906118e0565b60405180910390f35b6101a56103b4565b005b6101af610479565b6040516101bc9190611a78565b60405180910390f35b6101cd61047f565b6040516101da9190611976565b60405180910390f35b6101fd60048036038101906101f89190611708565b61050d565b005b61020761082a565b005b6102116108b2565b60405161021e91906118e0565b60405180910390f35b610241600480360381019061023c9190611708565b6108db565b005b61025d60048036038101906102589190611708565b610bbf565b005b61027960048036038101906102749190611731565b610c45565b005b61029560048036038101906102909190611708565b611149565b005b61029f6111cf565b6040516102ac9190611a78565b60405180910390f35b6102cf60048036038101906102ca9190611708565b6111d5565b005b6102d961125b565b6040516102e69190611a78565b60405180910390f35b6102f7611261565b6040516103049190611976565b60405180910390f35b610327600480360381019061032291906116b6565b6112ef565b005b6103316113e7565b60405161033e9190611a78565b60405180910390f35b61034f6113ed565b60405161035c91906118e0565b60405180910390f35b600f60009054906101000a900460ff1681565b60175481565b600381600b811061038e57600080fd5b016000915054906101000a900473ffffffffffffffffffffffffffffffffffffffff1681565b6103bc611413565b73ffffffffffffffffffffffffffffffffffffffff166103da6108b2565b73ffffffffffffffffffffffffffffffffffffffff1614610430576040517f08c379a0000000000000000000000000000000000000000000000000000000008152600401610427906119d8565b60405180910390fd5b3373ffffffffffffffffffffffffffffffffffffffff166108fc479081150290604051600060405180830381858888f19350505050158015610476573d6000803e3d6000fd5b50565b60115481565b6018805461048c90611ca4565b80601f01602080910402602001604051908101604052809291908181526020018280546104b890611ca4565b80156105055780601f106104da57610100808354040283529160200191610505565b820191906000526020600020905b8154815290600101906020018083116104e857829003601f168201915b505050505081565b60026001541415610553576040517f08c379a000000000000000000000000000000000000000000000000000000000815260040161054a90611a58565b60405180910390fd5b6002600181905550600b811061059e576040517f08c379a000000000000000000000000000000000000000000000000000000000815260040161059590611a38565b60405180910390fd5b600073ffffffffffffffffffffffffffffffffffffffff16600382600b81106105f0577f4e487b7100000000000000000000000000000000000000000000000000000000600052603260045260246000fd5b0160009054906101000a900473ffffffffffffffffffffffffffffffffffffffff1673ffffffffffffffffffffffffffffffffffffffff1614610668576040517f08c379a000000000000000000000000000000000000000000000000000000000815260040161065f90611a18565b60405180910390fd5b600260009054906101000a900473ffffffffffffffffffffffffffffffffffffffff1673ffffffffffffffffffffffffffffffffffffffff166323b872dd3330600e546040518463ffffffff1660e01b81526004016106c9939291906118fb565b602060405180830381600087803b1580156106e357600080fd5b505af11580156106f7573d6000803e3d6000fd5b505050506040513d601f19601f8201168201806040525081019061071b91906116df565b5033600382600b8110610757577f4e487b7100000000000000000000000000000000000000000000000000000000600052603260045260246000fd5b0160006101000a81548173ffffffffffffffffffffffffffffffffffffffff021916908373ffffffffffffffffffffffffffffffffffffffff1602179055506001601360008282546107a99190611b05565b925050819055507f61f34d7a1d53dfa3049f9b57c26e8fa833632bc7b6f0709247cd4c51268517e733826040516107e1929190611932565b60405180910390a1600b60135410610820577f4f072dab40e195968d7b7fe2e8d8c6f1c6bcb4221126429b221f5c324b8fe1a460405160405180910390a15b6001808190555050565b610832611413565b73ffffffffffffffffffffffffffffffffffffffff166108506108b2565b73ffffffffffffffffffffffffffffffffffffffff16146108a6576040517f08c379a000000000000000000000000000000000000000000000000000000000815260040161089d906119d8565b60405180910390fd5b6108b0600061141b565b565b60008060009054906101000a900473ffffffffffffffffffffffffffffffffffffffff16905090565b60026001541415610921576040517f08c379a000000000000000000000000000000000000000000000000000000000815260040161091890611a58565b60405180910390fd5b6002600181905550600b811061096c576040517f08c379a0000000000000000000000000000000000000000000000000000000008152600401610963906119f8565b60405180910390fd5b3373ffffffffffffffffffffffffffffffffffffffff16600382600b81106109bd577f4e487b7100000000000000000000000000000000000000000000000000000000600052603260045260246000fd5b0160009054906101000a900473ffffffffffffffffffffffffffffffffffffffff1673ffffffffffffffffffffffffffffffffffffffff1614610a35576040517f08c379a0000000000000000000000000000000000000000000000000000000008152600401610a2c906119b8565b60405180910390fd5b6000600382600b8110610a71577f4e487b7100000000000000000000000000000000000000000000000000000000600052603260045260246000fd5b0160006101000a81548173ffffffffffffffffffffffffffffffffffffffff021916908373ffffffffffffffffffffffffffffffffffffffff160217905550600160136000828254610ac39190611be6565b92505081905550600260009054906101000a900473ffffffffffffffffffffffffffffffffffffffff1673ffffffffffffffffffffffffffffffffffffffff1663a9059cbb33600e546040518363ffffffff1660e01b8152600401610b29929190611932565b602060405180830381600087803b158015610b4357600080fd5b505af1158015610b57573d6000803e3d6000fd5b505050506040513d601f19601f82011682018060405250810190610b7b91906116df565b507f23a2a122623b289fc3ab6661b083fb22bee910e7cb46c5823b2a3e1d724ef6ce3382604051610bad929190611932565b60405180910390a16001808190555050565b610bc7611413565b73ffffffffffffffffffffffffffffffffffffffff16610be56108b2565b73ffffffffffffffffffffffffffffffffffffffff1614610c3b576040517f08c379a0000000000000000000000000000000000000000000000000000000008152600401610c32906119d8565b60405180910390fd5b8060148190555050565b610c4d611413565b73ffffffffffffffffffffffffffffffffffffffff16610c6b6108b2565b73ffffffffffffffffffffffffffffffffffffffff1614610cc1576040517f08c379a0000000000000000000000000000000000000000000000000000000008152600401610cb8906119d8565b60405180910390fd5b60196018908054610cd190611ca4565b610cdc9291906114df565b508060199080519060200190610cf392919061156c565b50816017819055506000600b83610d0a9190611d07565b90506001600f60006101000a81548160ff021916908315150217905550600381600b8110610d61577f4e487b7100000000000000000000000000000000000000000000000000000000600052603260045260246000fd5b0160009054906101000a900473ffffffffffffffffffffffffffffffffffffffff16601260006101000a81548173ffffffffffffffffffffffffffffffffffffffff021916908373ffffffffffffffffffffffffffffffffffffffff160217905550600260009054906101000a900473ffffffffffffffffffffffffffffffffffffffff1673ffffffffffffffffffffffffffffffffffffffff1663a9059cbb601260009054906101000a900473ffffffffffffffffffffffffffffffffffffffff16600a600e54610e339190611b8c565b6040518363ffffffff1660e01b8152600401610e50929190611932565b602060405180830381600087803b158015610e6a57600080fd5b505af1158015610e7e573d6000803e3d6000fd5b505050506040513d601f19601f82011682018060405250810190610ea291906116df565b5060006064601454600e54610eb79190611b8c565b610ec19190611b5b565b905060006064601554600e54610ed79190611b8c565b610ee19190611b5b565b9050600260009054906101000a900473ffffffffffffffffffffffffffffffffffffffff1673ffffffffffffffffffffffffffffffffffffffff1663a9059cbb61dead846040518363ffffffff1660e01b8152600401610f42929190611932565b602060405180830381600087803b158015610f5c57600080fd5b505af1158015610f70573d6000803e3d6000fd5b505050506040513d601f19601f82011682018060405250810190610f9491906116df565b50600260009054906101000a900473ffffffffffffffffffffffffffffffffffffffff1673ffffffffffffffffffffffffffffffffffffffff1663a9059cbb601660009054906101000a900473ffffffffffffffffffffffffffffffffffffffff16836040518363ffffffff1660e01b8152600401611014929190611932565b602060405180830381600087803b15801561102e57600080fd5b505af1158015611042573d6000803e3d6000fd5b505050506040513d601f19601f8201168201806040525081019061106691906116df565b5081601060008282546110799190611b05565b92505081905550600a600e5461108f9190611b8c565b601160008282546110a09190611b05565b9250508190555060005b600b811015611139576000600382600b81106110ef577f4e487b7100000000000000000000000000000000000000000000000000000000600052603260045260246000fd5b0160006101000a81548173ffffffffffffffffffffffffffffffffffffffff021916908373ffffffffffffffffffffffffffffffffffffffff1602179055508060010190506110aa565b5060006013819055505050505050565b611151611413565b73ffffffffffffffffffffffffffffffffffffffff1661116f6108b2565b73ffffffffffffffffffffffffffffffffffffffff16146111c5576040517f08c379a00000000000000000000000000000000000000000000000000000000081526004016111bc906119d8565b60405180910390fd5b80600e8190555050565b60105481565b6111dd611413565b73ffffffffffffffffffffffffffffffffffffffff166111fb6108b2565b73ffffffffffffffffffffffffffffffffffffffff1614611251576040517f08c379a0000000000000000000000000000000000000000000000000000000008152600401611248906119d8565b60405180910390fd5b8060158190555050565b60135481565b6019805461126e90611ca4565b80601f016020809104026020016040519081016040528092919081815260200182805461129a90611ca4565b80156112e75780601f106112bc576101008083540402835291602001916112e7565b820191906000526020600020905b8154815290600101906020018083116112ca57829003601f168201915b505050505081565b6112f7611413565b73ffffffffffffffffffffffffffffffffffffffff166113156108b2565b73ffffffffffffffffffffffffffffffffffffffff161461136b576040517f08c379a0000000000000000000000000000000000000000000000000000000008152600401611362906119d8565b60405180910390fd5b600073ffffffffffffffffffffffffffffffffffffffff168173ffffffffffffffffffffffffffffffffffffffff1614156113db576040517f08c379a00000000000000000000000000000000000000000000000000000000081526004016113d290611998565b60405180910390fd5b6113e48161141b565b50565b600e5481565b601260009054906101000a900473ffffffffffffffffffffffffffffffffffffffff1681565b600033905090565b60008060009054906101000a900473ffffffffffffffffffffffffffffffffffffffff169050816000806101000a81548173ffffffffffffffffffffffffffffffffffffffff021916908373ffffffffffffffffffffffffffffffffffffffff1602179055508173ffffffffffffffffffffffffffffffffffffffff168173ffffffffffffffffffffffffffffffffffffffff167f8be0079c531659141344cd1fd0a4f28419497f9722a3daafe3b4186f6b6457e060405160405180910390a35050565b8280546114eb90611ca4565b90600052602060002090601f01602090048101928261150d576000855561155b565b82601f1061151e578054855561155b565b8280016001018555821561155b57600052602060002091601f016020900482015b8281111561155a57825482559160010191906001019061153f565b5b50905061156891906115f2565b5090565b82805461157890611ca4565b90600052602060002090601f01602090048101928261159a57600085556115e1565b82601f106115b357805160ff19168380011785556115e1565b828001600101855582156115e1579182015b828111156115e05782518255916020019190600101906115c5565b5b5090506115ee91906115f2565b5090565b5b8082111561160b5760008160009055506001016115f3565b5090565b600061162261161d84611ab8565b611a93565b90508281526020810184848401111561163a57600080fd5b611645848285611c62565b509392505050565b60008135905061165c81611f96565b92915050565b60008151905061167181611fad565b92915050565b600082601f83011261168857600080fd5b813561169884826020860161160f565b91505092915050565b6000813590506116b081611fc4565b92915050565b6000602082840312156116c857600080fd5b60006116d68482850161164d565b91505092915050565b6000602082840312156116f157600080fd5b60006116ff84828501611662565b91505092915050565b60006020828403121561171a57600080fd5b6000611728848285016116a1565b91505092915050565b6000806040838503121561174457600080fd5b6000611752858286016116a1565b925050602083013567ffffffffffffffff81111561176f57600080fd5b61177b85828601611677565b9150509250929050565b61178e81611c1a565b82525050565b61179d81611c2c565b82525050565b60006117ae82611ae9565b6117b88185611af4565b93506117c8818560208601611c71565b6117d181611df4565b840191505092915050565b60006117e9602683611af4565b91506117f482611e05565b604082019050919050565b600061180c601e83611af4565b915061181782611e54565b602082019050919050565b600061182f602083611af4565b915061183a82611e7d565b602082019050919050565b6000611852602283611af4565b915061185d82611ea6565b604082019050919050565b6000611875601583611af4565b915061188082611ef5565b602082019050919050565b6000611898602283611af4565b91506118a382611f1e565b604082019050919050565b60006118bb601f83611af4565b91506118c682611f6d565b602082019050919050565b6118da81611c58565b82525050565b60006020820190506118f56000830184611785565b92915050565b60006060820190506119106000830186611785565b61191d6020830185611785565b61192a60408301846118d1565b949350505050565b60006040820190506119476000830185611785565b61195460208301846118d1565b9392505050565b60006020820190506119706000830184611794565b92915050565b6000602082019050818103600083015261199081846117a3565b905092915050565b600060208201905081810360008301526119b1816117dc565b9050919050565b600060208201905081810360008301526119d1816117ff565b9050919050565b600060208201905081810360008301526119f181611822565b9050919050565b60006020820190508181036000830152611a1181611845565b9050919050565b60006020820190508181036000830152611a3181611868565b9050919050565b60006020820190508181036000830152611a518161188b565b9050919050565b60006020820190508181036000830152611a71816118ae565b9050919050565b6000602082019050611a8d60008301846118d1565b92915050565b6000611a9d611aae565b9050611aa98282611cd6565b919050565b6000604051905090565b600067ffffffffffffffff821115611ad357611ad2611dc5565b5b611adc82611df4565b9050602081019050919050565b600081519050919050565b600082825260208201905092915050565b6000611b1082611c58565b9150611b1b83611c58565b9250827fffffffffffffffffffffffffffffffffffffffffffffffffffffffffffffffff03821115611b5057611b4f611d38565b5b828201905092915050565b6000611b6682611c58565b9150611b7183611c58565b925082611b8157611b80611d67565b5b828204905092915050565b6000611b9782611c58565b9150611ba283611c58565b9250817fffffffffffffffffffffffffffffffffffffffffffffffffffffffffffffffff0483118215151615611bdb57611bda611d38565b5b828202905092915050565b6000611bf182611c58565b9150611bfc83611c58565b925082821015611c0f57611c0e611d38565b5b828203905092915050565b6000611c2582611c38565b9050919050565b60008115159050919050565b600073ffffffffffffffffffffffffffffffffffffffff82169050919050565b6000819050919050565b82818337600083830152505050565b60005b83811015611c8f578082015181840152602081019050611c74565b83811115611c9e576000848401525b50505050565b60006002820490506001821680611cbc57607f821691505b60208210811415611cd057611ccf611d96565b5b50919050565b611cdf82611df4565b810181811067ffffffffffffffff82111715611cfe57611cfd611dc5565b5b80604052505050565b6000611d1282611c58565b9150611d1d83611c58565b925082611d2d57611d2c611d67565b5b828206905092915050565b7f4e487b7100000000000000000000000000000000000000000000000000000000600052601160045260246000fd5b7f4e487b7100000000000000000000000000000000000000000000000000000000600052601260045260246000fd5b7f4e487b7100000000000000000000000000000000000000000000000000000000600052602260045260246000fd5b7f4e487b7100000000000000000000000000000000000000000000000000000000600052604160045260246000fd5b6000601f19601f8301169050919050565b7f4f776e61626c653a206e6577206f776e657220697320746865207a65726f206160008201527f6464726573730000000000000000000000000000000000000000000000000000602082015250565b7f5468697320736c6f7420776173206e6f742074616b656e20627920796f750000600082015250565b7f4f776e61626c653a2063616c6c6572206973206e6f7420746865206f776e6572600082015250565b7f43616e206f6e6c79206c65617665206120736c6f742066726f6d203020746f2060008201527f3131000000000000000000000000000000000000000000000000000000000000602082015250565b7f5468697320736c6f74206973206e6f7420667265650000000000000000000000600082015250565b7f43616e206f6e6c7920656e746572206120736c6f742066726f6d203020746f2060008201527f3130000000000000000000000000000000000000000000000000000000000000602082015250565b7f5265656e7472616e637947756172643a207265656e7472616e742063616c6c00600082015250565b611f9f81611c1a565b8114611faa57600080fd5b50565b611fb681611c2c565b8114611fc157600080fd5b50565b611fcd81611c58565b8114611fd857600080fd5b5056fea264697066735822122034f0ad907935df35ff6b822787d99ee935169a1d0ce30f780d95a051a8b7eebe64736f6c63430008040033",
  "linkReferences": {},
  "deployedLinkReferences": {}
}