{
  "_format": "hh-sol-artifact-1",
  "contractName": "Raffle",
  "sourceName": "src/backend/contracts/Raffle.sol",
  "abi": [
    {
      "inputs": [
        {
          "internalType": "address",
          "name": "_tokenAddress",
          "type": "address"
        },
        {
          "internalType": "uint256",
          "name": "_entryPrice",
          "type": "uint256"
        },
        {
          "internalType": "address",
          "name": "_teamWallet",
          "type": "address"
        },
        {
          "internalType": "string",
          "name": "_provenance",
          "type": "string"
        }
      ],
      "stateMutability": "nonpayable",
      "type": "constructor"
    },
    {
      "anonymous": false,
      "inputs": [
        {
          "indexed": true,
          "internalType": "address",
          "name": "previousOwner",
          "type": "address"
        },
        {
          "indexed": true,
          "internalType": "address",
          "name": "newOwner",
          "type": "address"
        }
      ],
      "name": "OwnershipTransferred",
      "type": "event"
    },
    {
      "anonymous": false,
      "inputs": [],
      "name": "RaffleFilled",
      "type": "event"
    },
    {
      "anonymous": false,
      "inputs": [
        {
          "indexed": false,
          "internalType": "address",
          "name": "user",
          "type": "address"
        },
        {
          "indexed": false,
          "internalType": "uint256",
          "name": "slot",
          "type": "uint256"
        }
      ],
      "name": "SlotEntered",
      "type": "event"
    },
    {
      "anonymous": false,
      "inputs": [
        {
          "indexed": false,
          "internalType": "address",
          "name": "user",
          "type": "address"
        },
        {
          "indexed": false,
          "internalType": "uint256",
          "name": "slot",
          "type": "uint256"
        }
      ],
      "name": "SlotLeft",
      "type": "event"
    },
    {
      "inputs": [
        {
          "internalType": "uint256",
          "name": "_randomNumber",
          "type": "uint256"
        },
        {
          "internalType": "string",
          "name": "_provenance",
          "type": "string"
        }
      ],
      "name": "endRaffle",
      "outputs": [],
      "stateMutability": "nonpayable",
      "type": "function"
    },
    {
      "inputs": [],
      "name": "entryPrice",
      "outputs": [
        {
          "internalType": "uint256",
          "name": "",
          "type": "uint256"
        }
      ],
      "stateMutability": "view",
      "type": "function"
    },
    {
      "inputs": [],
      "name": "getParticipants",
      "outputs": [
        {
          "internalType": "address[11]",
          "name": "",
          "type": "address[11]"
        }
      ],
      "stateMutability": "view",
      "type": "function"
    },
    {
      "inputs": [],
      "name": "lastProvenance",
      "outputs": [
        {
          "internalType": "string",
          "name": "",
          "type": "string"
        }
      ],
      "stateMutability": "view",
      "type": "function"
    },
    {
      "inputs": [],
      "name": "lastRandomNumber",
      "outputs": [
        {
          "internalType": "uint256",
          "name": "",
          "type": "uint256"
        }
      ],
      "stateMutability": "view",
      "type": "function"
    },
    {
      "inputs": [],
      "name": "lastWinner",
      "outputs": [
        {
          "internalType": "address",
          "name": "",
          "type": "address"
        }
      ],
      "stateMutability": "view",
      "type": "function"
    },
    {
      "inputs": [],
      "name": "nextProvenance",
      "outputs": [
        {
          "internalType": "string",
          "name": "",
          "type": "string"
        }
      ],
      "stateMutability": "view",
      "type": "function"
    },
    {
      "inputs": [],
      "name": "owner",
      "outputs": [
        {
          "internalType": "address",
          "name": "",
          "type": "address"
        }
      ],
      "stateMutability": "view",
      "type": "function"
    },
    {
      "inputs": [
        {
          "internalType": "uint256",
          "name": "",
          "type": "uint256"
        }
      ],
      "name": "participants",
      "outputs": [
        {
          "internalType": "address",
          "name": "",
          "type": "address"
        }
      ],
      "stateMutability": "view",
      "type": "function"
    },
    {
      "inputs": [],
      "name": "participantsCount",
      "outputs": [
        {
          "internalType": "uint256",
          "name": "",
          "type": "uint256"
        }
      ],
      "stateMutability": "view",
      "type": "function"
    },
    {
      "inputs": [
        {
          "internalType": "uint256",
          "name": "_slot",
          "type": "uint256"
        }
      ],
      "name": "play",
      "outputs": [],
      "stateMutability": "nonpayable",
      "type": "function"
    },
    {
      "inputs": [
        {
          "internalType": "uint256",
          "name": "_slot",
          "type": "uint256"
        }
      ],
      "name": "pullOut",
      "outputs": [],
      "stateMutability": "nonpayable",
      "type": "function"
    },
    {
      "inputs": [],
      "name": "renounceOwnership",
      "outputs": [],
      "stateMutability": "nonpayable",
      "type": "function"
    },
    {
      "inputs": [
        {
          "internalType": "uint256",
          "name": "_entryPrice",
          "type": "uint256"
        }
      ],
      "name": "setEntryPrice",
      "outputs": [],
      "stateMutability": "nonpayable",
      "type": "function"
    },
    {
      "inputs": [
        {
          "internalType": "uint256",
          "name": "_percent",
          "type": "uint256"
        }
      ],
      "name": "setPercentToBurn",
      "outputs": [],
      "stateMutability": "nonpayable",
      "type": "function"
    },
    {
      "inputs": [
        {
          "internalType": "uint256",
          "name": "_percent",
          "type": "uint256"
        }
      ],
      "name": "setPercentToTeam",
      "outputs": [],
      "stateMutability": "nonpayable",
      "type": "function"
    },
    {
      "inputs": [],
      "name": "totalBurned",
      "outputs": [
        {
          "internalType": "uint256",
          "name": "",
          "type": "uint256"
        }
      ],
      "stateMutability": "view",
      "type": "function"
    },
    {
      "inputs": [],
      "name": "totalPayout",
      "outputs": [
        {
          "internalType": "uint256",
          "name": "",
          "type": "uint256"
        }
      ],
      "stateMutability": "view",
      "type": "function"
    },
    {
      "inputs": [
        {
          "internalType": "address",
          "name": "newOwner",
          "type": "address"
        }
      ],
      "name": "transferOwnership",
      "outputs": [],
      "stateMutability": "nonpayable",
      "type": "function"
    },
    {
      "inputs": [],
      "name": "withdraw",
      "outputs": [],
      "stateMutability": "nonpayable",
      "type": "function"
    }
  ],
  "bytecode": "0x6080604052601e60135560466014553480156200001b57600080fd5b506040516200291538038062002915833981810160405281019062000041919062000330565b62000061620000556200011460201b60201c565b6200011c60201b60201c565b6001808190555082600e8190555083600260006101000a81548173ffffffffffffffffffffffffffffffffffffffff021916908373ffffffffffffffffffffffffffffffffffffffff16021790555081601560006101000a81548173ffffffffffffffffffffffffffffffffffffffff021916908373ffffffffffffffffffffffffffffffffffffffff160217905550806018908051906020019062000109929190620001e0565b505050505062000597565b600033905090565b60008060009054906101000a900473ffffffffffffffffffffffffffffffffffffffff169050816000806101000a81548173ffffffffffffffffffffffffffffffffffffffff021916908373ffffffffffffffffffffffffffffffffffffffff1602179055508173ffffffffffffffffffffffffffffffffffffffff168173ffffffffffffffffffffffffffffffffffffffff167f8be0079c531659141344cd1fd0a4f28419497f9722a3daafe3b4186f6b6457e060405160405180910390a35050565b828054620001ee9062000488565b90600052602060002090601f0160209004810192826200021257600085556200025e565b82601f106200022d57805160ff19168380011785556200025e565b828001600101855582156200025e579182015b828111156200025d57825182559160200191906001019062000240565b5b5090506200026d919062000271565b5090565b5b808211156200028c57600081600090555060010162000272565b5090565b6000620002a7620002a184620003de565b620003b5565b905082815260208101848484011115620002c057600080fd5b620002cd84828562000452565b509392505050565b600081519050620002e68162000563565b92915050565b600082601f830112620002fe57600080fd5b81516200031084826020860162000290565b91505092915050565b6000815190506200032a816200057d565b92915050565b600080600080608085870312156200034757600080fd5b60006200035787828801620002d5565b94505060206200036a8782880162000319565b93505060406200037d87828801620002d5565b925050606085015167ffffffffffffffff8111156200039b57600080fd5b620003a987828801620002ec565b91505092959194509250565b6000620003c1620003d4565b9050620003cf8282620004be565b919050565b6000604051905090565b600067ffffffffffffffff821115620003fc57620003fb62000523565b5b620004078262000552565b9050602081019050919050565b6000620004218262000428565b9050919050565b600073ffffffffffffffffffffffffffffffffffffffff82169050919050565b6000819050919050565b60005b838110156200047257808201518184015260208101905062000455565b8381111562000482576000848401525b50505050565b60006002820490506001821680620004a157607f821691505b60208210811415620004b857620004b7620004f4565b5b50919050565b620004c98262000552565b810181811067ffffffffffffffff82111715620004eb57620004ea62000523565b5b80604052505050565b7f4e487b7100000000000000000000000000000000000000000000000000000000600052602260045260246000fd5b7f4e487b7100000000000000000000000000000000000000000000000000000000600052604160045260246000fd5b6000601f19601f8301169050919050565b6200056e8162000414565b81146200057a57600080fd5b50565b620005888162000448565b81146200059457600080fd5b50565b61236e80620005a76000396000f3fe608060405234801561001057600080fd5b506004361061012c5760003560e01c8063998f3fd7116100ad578063dd60c89811610071578063dd60c898146102d1578063f10052a7146102ef578063f2fde38b1461030d578063f745adfc14610329578063fe188184146103475761012c565b8063998f3fd714610243578063a3d176ff1461025f578063a6e77af11461027b578063d89135cd14610297578063dcaddb06146102b55761012c565b80635aa68ac0116100f45780635aa68ac0146101c55780636898f82b146101e3578063715018a6146101ff5780638da5cb5b146102095780638f72f576146102275761012c565b806321e1ba4e1461013157806335c1d3491461014f5780633ccfd60b1461017f578063454f7b8f146101895780634eef98b6146101a7575b600080fd5b610139610365565b6040516101469190611d7f565b60405180910390f35b61016960048036038101906101649190611933565b61036b565b6040516101769190611bc6565b60405180910390f35b6101876103a1565b005b6101916105c0565b60405161019e9190611d7f565b60405180910390f35b6101af6105c6565b6040516101bc9190611c5d565b60405180910390f35b6101cd610654565b6040516101da9190611c41565b60405180910390f35b6101fd60048036038101906101f89190611933565b6106d5565b005b6102076109f2565b005b610211610a7a565b60405161021e9190611bc6565b60405180910390f35b610241600480360381019061023c9190611933565b610aa3565b005b61025d60048036038101906102589190611933565b610d87565b005b61027960048036038101906102749190611985565b610e0d565b005b61029560048036038101906102909190611933565b61133c565b005b61029f6113c2565b6040516102ac9190611d7f565b60405180910390f35b6102cf60048036038101906102ca9190611933565b6113c8565b005b6102d961144e565b6040516102e69190611d7f565b60405180910390f35b6102f7611454565b6040516103049190611c5d565b60405180910390f35b610327600480360381019061032291906118e1565b6114e2565b005b6103316115da565b60405161033e9190611d7f565b60405180910390f35b61034f6115e0565b60405161035c9190611bc6565b60405180910390f35b60165481565b600381600b811061037b57600080fd5b016000915054906101000a900473ffffffffffffffffffffffffffffffffffffffff1681565b6103a9611606565b73ffffffffffffffffffffffffffffffffffffffff166103c7610a7a565b73ffffffffffffffffffffffffffffffffffffffff161461041d576040517f08c379a000000000000000000000000000000000000000000000000000000000815260040161041490611cdf565b60405180910390fd5b3373ffffffffffffffffffffffffffffffffffffffff166108fc479081150290604051600060405180830381858888f19350505050158015610463573d6000803e3d6000fd5b50600260009054906101000a900473ffffffffffffffffffffffffffffffffffffffff1673ffffffffffffffffffffffffffffffffffffffff1663a9059cbb33600260009054906101000a900473ffffffffffffffffffffffffffffffffffffffff1673ffffffffffffffffffffffffffffffffffffffff166370a08231306040518263ffffffff1660e01b81526004016104fe9190611bc6565b60206040518083038186803b15801561051657600080fd5b505afa15801561052a573d6000803e3d6000fd5b505050506040513d601f19601f8201168201806040525081019061054e919061195c565b6040518363ffffffff1660e01b815260040161056b929190611c18565b602060405180830381600087803b15801561058557600080fd5b505af1158015610599573d6000803e3d6000fd5b505050506040513d601f19601f820116820180604052508101906105bd919061190a565b50565b60105481565b601780546105d390611fd8565b80601f01602080910402602001604051908101604052809291908181526020018280546105ff90611fd8565b801561064c5780601f106106215761010080835404028352916020019161064c565b820191906000526020600020905b81548152906001019060200180831161062f57829003601f168201915b505050505081565b61065c6116d2565b6003600b806020026040519081016040528092919082600b80156106cb576020028201915b8160009054906101000a900473ffffffffffffffffffffffffffffffffffffffff1673ffffffffffffffffffffffffffffffffffffffff1681526020019060010190808311610681575b5050505050905090565b6002600154141561071b576040517f08c379a000000000000000000000000000000000000000000000000000000000815260040161071290611d5f565b60405180910390fd5b6002600181905550600b8110610766576040517f08c379a000000000000000000000000000000000000000000000000000000000815260040161075d90611d3f565b60405180910390fd5b600073ffffffffffffffffffffffffffffffffffffffff16600382600b81106107b8577f4e487b7100000000000000000000000000000000000000000000000000000000600052603260045260246000fd5b0160009054906101000a900473ffffffffffffffffffffffffffffffffffffffff1673ffffffffffffffffffffffffffffffffffffffff1614610830576040517f08c379a000000000000000000000000000000000000000000000000000000000815260040161082790611d1f565b60405180910390fd5b600260009054906101000a900473ffffffffffffffffffffffffffffffffffffffff1673ffffffffffffffffffffffffffffffffffffffff166323b872dd3330600e546040518463ffffffff1660e01b815260040161089193929190611be1565b602060405180830381600087803b1580156108ab57600080fd5b505af11580156108bf573d6000803e3d6000fd5b505050506040513d601f19601f820116820180604052508101906108e3919061190a565b5033600382600b811061091f577f4e487b7100000000000000000000000000000000000000000000000000000000600052603260045260246000fd5b0160006101000a81548173ffffffffffffffffffffffffffffffffffffffff021916908373ffffffffffffffffffffffffffffffffffffffff1602179055506001601260008282546109719190611e39565b925050819055507f61f34d7a1d53dfa3049f9b57c26e8fa833632bc7b6f0709247cd4c51268517e733826040516109a9929190611c18565b60405180910390a1600b601254106109e8577f4f072dab40e195968d7b7fe2e8d8c6f1c6bcb4221126429b221f5c324b8fe1a460405160405180910390a15b6001808190555050565b6109fa611606565b73ffffffffffffffffffffffffffffffffffffffff16610a18610a7a565b73ffffffffffffffffffffffffffffffffffffffff1614610a6e576040517f08c379a0000000000000000000000000000000000000000000000000000000008152600401610a6590611cdf565b60405180910390fd5b610a78600061160e565b565b60008060009054906101000a900473ffffffffffffffffffffffffffffffffffffffff16905090565b60026001541415610ae9576040517f08c379a0000000000000000000000000000000000000000000000000000000008152600401610ae090611d5f565b60405180910390fd5b6002600181905550600b8110610b34576040517f08c379a0000000000000000000000000000000000000000000000000000000008152600401610b2b90611cff565b60405180910390fd5b3373ffffffffffffffffffffffffffffffffffffffff16600382600b8110610b85577f4e487b7100000000000000000000000000000000000000000000000000000000600052603260045260246000fd5b0160009054906101000a900473ffffffffffffffffffffffffffffffffffffffff1673ffffffffffffffffffffffffffffffffffffffff1614610bfd576040517f08c379a0000000000000000000000000000000000000000000000000000000008152600401610bf490611cbf565b60405180910390fd5b6000600382600b8110610c39577f4e487b7100000000000000000000000000000000000000000000000000000000600052603260045260246000fd5b0160006101000a81548173ffffffffffffffffffffffffffffffffffffffff021916908373ffffffffffffffffffffffffffffffffffffffff160217905550600160126000828254610c8b9190611f1a565b92505081905550600260009054906101000a900473ffffffffffffffffffffffffffffffffffffffff1673ffffffffffffffffffffffffffffffffffffffff1663a9059cbb33600e546040518363ffffffff1660e01b8152600401610cf1929190611c18565b602060405180830381600087803b158015610d0b57600080fd5b505af1158015610d1f573d6000803e3d6000fd5b505050506040513d601f19601f82011682018060405250810190610d43919061190a565b507f23a2a122623b289fc3ab6661b083fb22bee910e7cb46c5823b2a3e1d724ef6ce3382604051610d75929190611c18565b60405180910390a16001808190555050565b610d8f611606565b73ffffffffffffffffffffffffffffffffffffffff16610dad610a7a565b73ffffffffffffffffffffffffffffffffffffffff1614610e03576040517f08c379a0000000000000000000000000000000000000000000000000000000008152600401610dfa90611cdf565b60405180910390fd5b8060138190555050565b610e15611606565b73ffffffffffffffffffffffffffffffffffffffff16610e33610a7a565b73ffffffffffffffffffffffffffffffffffffffff1614610e89576040517f08c379a0000000000000000000000000000000000000000000000000000000008152600401610e8090611cdf565b60405180910390fd5b600b6012541015610ecf576040517f08c379a0000000000000000000000000000000000000000000000000000000008152600401610ec690611c7f565b60405180910390fd5b60186017908054610edf90611fd8565b610eea9291906116f5565b508060189080519060200190610f01929190611782565b50816016819055506000600b83610f18919061203b565b9050600381600b8110610f54577f4e487b7100000000000000000000000000000000000000000000000000000000600052603260045260246000fd5b0160009054906101000a900473ffffffffffffffffffffffffffffffffffffffff16601160006101000a81548173ffffffffffffffffffffffffffffffffffffffff021916908373ffffffffffffffffffffffffffffffffffffffff160217905550600260009054906101000a900473ffffffffffffffffffffffffffffffffffffffff1673ffffffffffffffffffffffffffffffffffffffff1663a9059cbb601160009054906101000a900473ffffffffffffffffffffffffffffffffffffffff16600a600e546110269190611ec0565b6040518363ffffffff1660e01b8152600401611043929190611c18565b602060405180830381600087803b15801561105d57600080fd5b505af1158015611071573d6000803e3d6000fd5b505050506040513d601f19601f82011682018060405250810190611095919061190a565b5060006064601354600e546110aa9190611ec0565b6110b49190611e8f565b905060006064601454600e546110ca9190611ec0565b6110d49190611e8f565b9050600260009054906101000a900473ffffffffffffffffffffffffffffffffffffffff1673ffffffffffffffffffffffffffffffffffffffff1663a9059cbb61dead846040518363ffffffff1660e01b8152600401611135929190611c18565b602060405180830381600087803b15801561114f57600080fd5b505af1158015611163573d6000803e3d6000fd5b505050506040513d601f19601f82011682018060405250810190611187919061190a565b50600260009054906101000a900473ffffffffffffffffffffffffffffffffffffffff1673ffffffffffffffffffffffffffffffffffffffff1663a9059cbb601560009054906101000a900473ffffffffffffffffffffffffffffffffffffffff16836040518363ffffffff1660e01b8152600401611207929190611c18565b602060405180830381600087803b15801561122157600080fd5b505af1158015611235573d6000803e3d6000fd5b505050506040513d601f19601f82011682018060405250810190611259919061190a565b5081600f600082825461126c9190611e39565b92505081905550600a600e546112829190611ec0565b601060008282546112939190611e39565b9250508190555060005b600b81101561132c576000600382600b81106112e2577f4e487b7100000000000000000000000000000000000000000000000000000000600052603260045260246000fd5b0160006101000a81548173ffffffffffffffffffffffffffffffffffffffff021916908373ffffffffffffffffffffffffffffffffffffffff16021790555080600101905061129d565b5060006012819055505050505050565b611344611606565b73ffffffffffffffffffffffffffffffffffffffff16611362610a7a565b73ffffffffffffffffffffffffffffffffffffffff16146113b8576040517f08c379a00000000000000000000000000000000000000000000000000000000081526004016113af90611cdf565b60405180910390fd5b80600e8190555050565b600f5481565b6113d0611606565b73ffffffffffffffffffffffffffffffffffffffff166113ee610a7a565b73ffffffffffffffffffffffffffffffffffffffff1614611444576040517f08c379a000000000000000000000000000000000000000000000000000000000815260040161143b90611cdf565b60405180910390fd5b8060148190555050565b60125481565b6018805461146190611fd8565b80601f016020809104026020016040519081016040528092919081815260200182805461148d90611fd8565b80156114da5780601f106114af576101008083540402835291602001916114da565b820191906000526020600020905b8154815290600101906020018083116114bd57829003601f168201915b505050505081565b6114ea611606565b73ffffffffffffffffffffffffffffffffffffffff16611508610a7a565b73ffffffffffffffffffffffffffffffffffffffff161461155e576040517f08c379a000000000000000000000000000000000000000000000000000000000815260040161155590611cdf565b60405180910390fd5b600073ffffffffffffffffffffffffffffffffffffffff168173ffffffffffffffffffffffffffffffffffffffff1614156115ce576040517f08c379a00000000000000000000000000000000000000000000000000000000081526004016115c590611c9f565b60405180910390fd5b6115d78161160e565b50565b600e5481565b601160009054906101000a900473ffffffffffffffffffffffffffffffffffffffff1681565b600033905090565b60008060009054906101000a900473ffffffffffffffffffffffffffffffffffffffff169050816000806101000a81548173ffffffffffffffffffffffffffffffffffffffff021916908373ffffffffffffffffffffffffffffffffffffffff1602179055508173ffffffffffffffffffffffffffffffffffffffff168173ffffffffffffffffffffffffffffffffffffffff167f8be0079c531659141344cd1fd0a4f28419497f9722a3daafe3b4186f6b6457e060405160405180910390a35050565b604051806101600160405280600b90602082028036833780820191505090505090565b82805461170190611fd8565b90600052602060002090601f0160209004810192826117235760008555611771565b82601f106117345780548555611771565b8280016001018555821561177157600052602060002091601f016020900482015b82811115611770578254825591600101919060010190611755565b5b50905061177e9190611808565b5090565b82805461178e90611fd8565b90600052602060002090601f0160209004810192826117b057600085556117f7565b82601f106117c957805160ff19168380011785556117f7565b828001600101855582156117f7579182015b828111156117f65782518255916020019190600101906117db565b5b5090506118049190611808565b5090565b5b80821115611821576000816000905550600101611809565b5090565b600061183861183384611dbf565b611d9a565b90508281526020810184848401111561185057600080fd5b61185b848285611f96565b509392505050565b600081359050611872816122f3565b92915050565b6000815190506118878161230a565b92915050565b600082601f83011261189e57600080fd5b81356118ae848260208601611825565b91505092915050565b6000813590506118c681612321565b92915050565b6000815190506118db81612321565b92915050565b6000602082840312156118f357600080fd5b600061190184828501611863565b91505092915050565b60006020828403121561191c57600080fd5b600061192a84828501611878565b91505092915050565b60006020828403121561194557600080fd5b6000611953848285016118b7565b91505092915050565b60006020828403121561196e57600080fd5b600061197c848285016118cc565b91505092915050565b6000806040838503121561199857600080fd5b60006119a6858286016118b7565b925050602083013567ffffffffffffffff8111156119c357600080fd5b6119cf8582860161188d565b9150509250929050565b60006119e583836119f1565b60208301905092915050565b6119fa81611f4e565b82525050565b611a0981611f4e565b82525050565b611a1881611dfa565b611a228184611e1d565b9250611a2d82611df0565b8060005b83811015611a5e578151611a4587826119d9565b9650611a5083611e10565b925050600181019050611a31565b505050505050565b6000611a7182611e05565b611a7b8185611e28565b9350611a8b818560208601611fa5565b611a9481612128565b840191505092915050565b6000611aac601d83611e28565b9150611ab782612139565b602082019050919050565b6000611acf602683611e28565b9150611ada82612162565b604082019050919050565b6000611af2601e83611e28565b9150611afd826121b1565b602082019050919050565b6000611b15602083611e28565b9150611b20826121da565b602082019050919050565b6000611b38602283611e28565b9150611b4382612203565b604082019050919050565b6000611b5b601583611e28565b9150611b6682612252565b602082019050919050565b6000611b7e602283611e28565b9150611b898261227b565b604082019050919050565b6000611ba1601f83611e28565b9150611bac826122ca565b602082019050919050565b611bc081611f8c565b82525050565b6000602082019050611bdb6000830184611a00565b92915050565b6000606082019050611bf66000830186611a00565b611c036020830185611a00565b611c106040830184611bb7565b949350505050565b6000604082019050611c2d6000830185611a00565b611c3a6020830184611bb7565b9392505050565b600061016082019050611c576000830184611a0f565b92915050565b60006020820190508181036000830152611c778184611a66565b905092915050565b60006020820190508181036000830152611c9881611a9f565b9050919050565b60006020820190508181036000830152611cb881611ac2565b9050919050565b60006020820190508181036000830152611cd881611ae5565b9050919050565b60006020820190508181036000830152611cf881611b08565b9050919050565b60006020820190508181036000830152611d1881611b2b565b9050919050565b60006020820190508181036000830152611d3881611b4e565b9050919050565b60006020820190508181036000830152611d5881611b71565b9050919050565b60006020820190508181036000830152611d7881611b94565b9050919050565b6000602082019050611d946000830184611bb7565b92915050565b6000611da4611db5565b9050611db0828261200a565b919050565b6000604051905090565b600067ffffffffffffffff821115611dda57611dd96120f9565b5b611de382612128565b9050602081019050919050565b6000819050919050565b6000600b9050919050565b600081519050919050565b6000602082019050919050565b600081905092915050565b600082825260208201905092915050565b6000611e4482611f8c565b9150611e4f83611f8c565b9250827fffffffffffffffffffffffffffffffffffffffffffffffffffffffffffffffff03821115611e8457611e8361206c565b5b828201905092915050565b6000611e9a82611f8c565b9150611ea583611f8c565b925082611eb557611eb461209b565b5b828204905092915050565b6000611ecb82611f8c565b9150611ed683611f8c565b9250817fffffffffffffffffffffffffffffffffffffffffffffffffffffffffffffffff0483118215151615611f0f57611f0e61206c565b5b828202905092915050565b6000611f2582611f8c565b9150611f3083611f8c565b925082821015611f4357611f4261206c565b5b828203905092915050565b6000611f5982611f6c565b9050919050565b60008115159050919050565b600073ffffffffffffffffffffffffffffffffffffffff82169050919050565b6000819050919050565b82818337600083830152505050565b60005b83811015611fc3578082015181840152602081019050611fa8565b83811115611fd2576000848401525b50505050565b60006002820490506001821680611ff057607f821691505b60208210811415612004576120036120ca565b5b50919050565b61201382612128565b810181811067ffffffffffffffff82111715612032576120316120f9565b5b80604052505050565b600061204682611f8c565b915061205183611f8c565b9250826120615761206061209b565b5b828206905092915050565b7f4e487b7100000000000000000000000000000000000000000000000000000000600052601160045260246000fd5b7f4e487b7100000000000000000000000000000000000000000000000000000000600052601260045260246000fd5b7f4e487b7100000000000000000000000000000000000000000000000000000000600052602260045260246000fd5b7f4e487b7100000000000000000000000000000000000000000000000000000000600052604160045260246000fd5b6000601f19601f8301169050919050565b7f4e6f7420656e6f75676820757365727320706172746963697061746564000000600082015250565b7f4f776e61626c653a206e6577206f776e657220697320746865207a65726f206160008201527f6464726573730000000000000000000000000000000000000000000000000000602082015250565b7f5468697320736c6f7420776173206e6f742074616b656e20627920796f750000600082015250565b7f4f776e61626c653a2063616c6c6572206973206e6f7420746865206f776e6572600082015250565b7f43616e206f6e6c79206c65617665206120736c6f742066726f6d203020746f2060008201527f3131000000000000000000000000000000000000000000000000000000000000602082015250565b7f5468697320736c6f74206973206e6f7420667265650000000000000000000000600082015250565b7f43616e206f6e6c7920656e746572206120736c6f742066726f6d203020746f2060008201527f3130000000000000000000000000000000000000000000000000000000000000602082015250565b7f5265656e7472616e637947756172643a207265656e7472616e742063616c6c00600082015250565b6122fc81611f4e565b811461230757600080fd5b50565b61231381611f60565b811461231e57600080fd5b50565b61232a81611f8c565b811461233557600080fd5b5056fea26469706673582212205335643192c1bef9a9d98609be10dcb00a26ed07db4d6d4d3ab4e7a97d72801664736f6c63430008040033",
  "linkReferences": {},
  "deployedLinkReferences": {}
}